{
  "contractName": "MultiSignature",
  "abi": [
    {
      "inputs": [
        {
          "internalType": "address[]",
          "name": "_owners",
          "type": "address[]"
        },
        {
          "internalType": "uint256",
          "name": "_numConfirmationsRequired",
          "type": "uint256"
        }
      ],
      "stateMutability": "nonpayable",
      "type": "constructor"
    },
    {
      "anonymous": false,
      "inputs": [
        {
          "indexed": true,
          "internalType": "address",
          "name": "owner",
          "type": "address"
        },
        {
          "indexed": true,
          "internalType": "uint256",
          "name": "trxIndex",
          "type": "uint256"
        }
      ],
      "name": "Cancel",
      "type": "event"
    },
    {
      "anonymous": false,
      "inputs": [
        {
          "indexed": true,
          "internalType": "address",
          "name": "owner",
          "type": "address"
        },
        {
          "indexed": true,
          "internalType": "uint256",
          "name": "trxIndex",
          "type": "uint256"
        }
      ],
      "name": "Confirm",
      "type": "event"
    },
    {
      "anonymous": false,
      "inputs": [
        {
          "indexed": true,
          "internalType": "address",
          "name": "sender",
          "type": "address"
        },
        {
          "indexed": false,
          "internalType": "uint256",
          "name": "amount",
          "type": "uint256"
        },
        {
          "indexed": false,
          "internalType": "uint256",
          "name": "balance",
          "type": "uint256"
        }
      ],
      "name": "Deposit",
      "type": "event"
    },
    {
      "anonymous": false,
      "inputs": [
        {
          "indexed": true,
          "internalType": "address",
          "name": "owner",
          "type": "address"
        },
        {
          "indexed": true,
          "internalType": "uint256",
          "name": "trxIndex",
          "type": "uint256"
        }
      ],
      "name": "Execute",
      "type": "event"
    },
    {
      "anonymous": false,
      "inputs": [
        {
          "indexed": true,
          "internalType": "address",
          "name": "owner",
          "type": "address"
        },
        {
          "indexed": true,
          "internalType": "uint256",
          "name": "trxIndex",
          "type": "uint256"
        },
        {
          "indexed": true,
          "internalType": "address",
          "name": "to",
          "type": "address"
        },
        {
          "indexed": false,
          "internalType": "uint256",
          "name": "value",
          "type": "uint256"
        },
        {
          "indexed": false,
          "internalType": "bytes",
          "name": "data",
          "type": "bytes"
        }
      ],
      "name": "Submit",
      "type": "event"
    },
    {
      "inputs": [
        {
          "internalType": "address",
          "name": "",
          "type": "address"
        }
      ],
      "name": "isOwner",
      "outputs": [
        {
          "internalType": "bool",
          "name": "",
          "type": "bool"
        }
      ],
      "stateMutability": "view",
      "type": "function",
      "constant": true
    },
    {
      "inputs": [
        {
          "internalType": "uint256",
          "name": "",
          "type": "uint256"
        },
        {
          "internalType": "address",
          "name": "",
          "type": "address"
        }
      ],
      "name": "isTransactionConfirmed",
      "outputs": [
        {
          "internalType": "bool",
          "name": "",
          "type": "bool"
        }
      ],
      "stateMutability": "view",
      "type": "function",
      "constant": true
    },
    {
      "inputs": [],
      "name": "numConformationsRequired",
      "outputs": [
        {
          "internalType": "uint256",
          "name": "",
          "type": "uint256"
        }
      ],
      "stateMutability": "view",
      "type": "function",
      "constant": true
    },
    {
      "inputs": [
        {
          "internalType": "uint256",
          "name": "",
          "type": "uint256"
        }
      ],
      "name": "owners",
      "outputs": [
        {
          "internalType": "address",
          "name": "",
          "type": "address"
        }
      ],
      "stateMutability": "view",
      "type": "function",
      "constant": true
    },
    {
      "inputs": [
        {
          "internalType": "uint256",
          "name": "",
          "type": "uint256"
        }
      ],
      "name": "transactions",
      "outputs": [
        {
          "internalType": "address",
          "name": "from",
          "type": "address"
        },
        {
          "internalType": "address",
          "name": "to",
          "type": "address"
        },
        {
          "internalType": "uint256",
          "name": "value",
          "type": "uint256"
        },
        {
          "internalType": "uint256",
          "name": "numConfirmations",
          "type": "uint256"
        },
        {
          "internalType": "bool",
          "name": "executed",
          "type": "bool"
        },
        {
          "internalType": "bytes",
          "name": "data",
          "type": "bytes"
        }
      ],
      "stateMutability": "view",
      "type": "function",
      "constant": true
    },
    {
      "stateMutability": "payable",
      "type": "receive",
      "payable": true
    },
    {
      "inputs": [],
      "name": "deposit",
      "outputs": [],
      "stateMutability": "payable",
      "type": "function",
      "payable": true
    },
    {
      "inputs": [
        {
          "internalType": "address",
          "name": "_to",
          "type": "address"
        },
        {
          "internalType": "uint256",
          "name": "_value",
          "type": "uint256"
        },
        {
          "internalType": "bytes",
          "name": "_data",
          "type": "bytes"
        }
      ],
      "name": "submitTransaction",
      "outputs": [],
      "stateMutability": "nonpayable",
      "type": "function"
    },
    {
      "inputs": [
        {
          "internalType": "uint256",
          "name": "_txIndex",
          "type": "uint256"
        }
      ],
      "name": "confirmTransaction",
      "outputs": [],
      "stateMutability": "nonpayable",
      "type": "function"
    },
    {
      "inputs": [
        {
          "internalType": "uint256",
          "name": "_txIndex",
          "type": "uint256"
        }
      ],
      "name": "executeTransaction",
      "outputs": [],
      "stateMutability": "nonpayable",
      "type": "function"
    },
    {
      "inputs": [
        {
          "internalType": "uint256",
          "name": "_txIndex",
          "type": "uint256"
        }
      ],
      "name": "cancelConfirmation",
      "outputs": [],
      "stateMutability": "nonpayable",
      "type": "function"
    },
    {
      "inputs": [],
      "name": "getOwner",
      "outputs": [
        {
          "internalType": "address[]",
          "name": "",
          "type": "address[]"
        }
      ],
      "stateMutability": "view",
      "type": "function",
      "constant": true
    },
    {
      "inputs": [],
      "name": "getTransactionCount",
      "outputs": [
        {
          "internalType": "uint256",
          "name": "",
          "type": "uint256"
        }
      ],
      "stateMutability": "view",
      "type": "function",
      "constant": true
    },
    {
      "inputs": [
        {
          "internalType": "uint256",
          "name": "_index",
          "type": "uint256"
        }
      ],
      "name": "getTransaction",
      "outputs": [
        {
          "internalType": "address",
          "name": "to",
          "type": "address"
        },
        {
          "internalType": "address",
          "name": "from",
          "type": "address"
        },
        {
          "internalType": "uint256",
          "name": "value",
          "type": "uint256"
        },
        {
          "internalType": "bytes",
          "name": "data",
          "type": "bytes"
        },
        {
          "internalType": "bool",
          "name": "executed",
          "type": "bool"
        },
        {
          "internalType": "uint256",
          "name": "numConfirmations",
          "type": "uint256"
        }
      ],
      "stateMutability": "view",
      "type": "function",
      "constant": true
    }
  ],
  "bytecode": "0x60806040523480156200001157600080fd5b5060405162002940380380620029408339818101604052810190620000379190620003da565b60008251116200007e576040517f08c379a00000000000000000000000000000000000000000000000000000000081526004016200007590620004f2565b60405180910390fd5b60008111801562000090575081518111155b620000d2576040517f08c379a0000000000000000000000000000000000000000000000000000000008152600401620000c99062000536565b60405180910390fd5b60005b8251811015620002fa5760008382815181106200011b577f4e487b7100000000000000000000000000000000000000000000000000000000600052603260045260246000fd5b60200260200101519050600073ffffffffffffffffffffffffffffffffffffffff168173ffffffffffffffffffffffffffffffffffffffff16141562000198576040517f08c379a00000000000000000000000000000000000000000000000000000000081526004016200018f90620004d0565b60405180910390fd5b600260008273ffffffffffffffffffffffffffffffffffffffff1673ffffffffffffffffffffffffffffffffffffffff16815260200190815260200160002060009054906101000a900460ff161562000228576040517f08c379a00000000000000000000000000000000000000000000000000000000081526004016200021f9062000514565b60405180910390fd5b6001600260008373ffffffffffffffffffffffffffffffffffffffff1673ffffffffffffffffffffffffffffffffffffffff16815260200190815260200160002060006101000a81548160ff0219169083151502179055506001819080600181540180825580915050600190039060005260206000200160009091909190916101000a81548173ffffffffffffffffffffffffffffffffffffffff021916908373ffffffffffffffffffffffffffffffffffffffff160217905550508080620002f19062000635565b915050620000d5565b50806000819055505050620007f0565b6000620003216200031b8462000581565b62000558565b905080838252602082019050828560208602820111156200034157600080fd5b60005b858110156200037557816200035a88826200037f565b84526020840193506020830192505060018101905062000344565b5050509392505050565b6000815190506200039081620007bc565b92915050565b600082601f830112620003a857600080fd5b8151620003ba8482602086016200030a565b91505092915050565b600081519050620003d481620007d6565b92915050565b60008060408385031215620003ee57600080fd5b600083015167ffffffffffffffff8111156200040957600080fd5b620004178582860162000396565b92505060206200042a85828601620003c3565b9150509250929050565b600062000443600d83620005b0565b91506200045082620006f2565b602082019050919050565b60006200046a600f83620005b0565b915062000477826200071b565b602082019050919050565b600062000491601383620005b0565b91506200049e8262000744565b602082019050919050565b6000620004b8602883620005b0565b9150620004c5826200076d565b604082019050919050565b60006020820190508181036000830152620004eb8162000434565b9050919050565b600060208201905081810360008301526200050d816200045b565b9050919050565b600060208201905081810360008301526200052f8162000482565b9050919050565b600060208201905081810360008301526200055181620004a9565b9050919050565b60006200056462000577565b9050620005728282620005ff565b919050565b6000604051905090565b600067ffffffffffffffff8211156200059f576200059e620006b2565b5b602082029050602081019050919050565b600082825260208201905092915050565b6000620005ce82620005d5565b9050919050565b600073ffffffffffffffffffffffffffffffffffffffff82169050919050565b6000819050919050565b6200060a82620006e1565b810181811067ffffffffffffffff821117156200062c576200062b620006b2565b5b80604052505050565b60006200064282620005f5565b91507fffffffffffffffffffffffffffffffffffffffffffffffffffffffffffffffff82141562000678576200067762000683565b5b600182019050919050565b7f4e487b7100000000000000000000000000000000000000000000000000000000600052601160045260246000fd5b7f4e487b7100000000000000000000000000000000000000000000000000000000600052604160045260246000fd5b6000601f19601f8301169050919050565b7f496e76616c6964206f776e657200000000000000000000000000000000000000600082015250565b7f4f776e6572732072657175697265640000000000000000000000000000000000600082015250565b7f4f776e6572206973206e6f7420756e6971756500000000000000000000000000600082015250565b7f496e76616c6964206e756d626572206f6620726571756972656420636f6e666960008201527f726d6174696f6e73000000000000000000000000000000000000000000000000602082015250565b620007c781620005c1565b8114620007d357600080fd5b50565b620007e181620005f5565b8114620007ed57600080fd5b50565b61214080620008006000396000f3fe6080604052600436106100c65760003560e01c80639ace38c21161007f578063c750758211610059578063c7507582146102f1578063d0e30db01461031c578063e4d8e85c14610326578063ee22610b146103635761011d565b80639ace38c21461025d578063c01a8c841461029f578063c6427474146102c85761011d565b8063025e7c27146101225780632e7700f01461015f5780632f54bf6e1461018a57806333ea3dc8146101c757806341b9184814610209578063893d20e8146102325761011d565b3661011d573373ffffffffffffffffffffffffffffffffffffffff167f90890809c654f11d6e72a28fa60149770a0d11ec6c92319d6ceb2bb0a4ea1a153447604051610113929190611bbc565b60405180910390a2005b600080fd5b34801561012e57600080fd5b506101496004803603810190610144919061164b565b61038c565b6040516101569190611949565b60405180910390f35b34801561016b57600080fd5b506101746103cb565b6040516101819190611b71565b60405180910390f35b34801561019657600080fd5b506101b160048036038101906101ac91906115bb565b6103d8565b6040516101be9190611a56565b60405180910390f35b3480156101d357600080fd5b506101ee60048036038101906101e9919061164b565b6103f8565b60405161020096959493929190611964565b60405180910390f35b34801561021557600080fd5b50610230600480360381019061022b919061164b565b61055a565b005b34801561023e57600080fd5b50610247610888565b6040516102549190611a34565b60405180910390f35b34801561026957600080fd5b50610284600480360381019061027f919061164b565b610916565b604051610296969594939291906119cc565b60405180910390f35b3480156102ab57600080fd5b506102c660048036038101906102c1919061164b565b610a37565b005b3480156102d457600080fd5b506102ef60048036038101906102ea91906115e4565b610e48565b005b3480156102fd57600080fd5b506103066110b5565b6040516103139190611b71565b60405180910390f35b6103246110bb565b005b34801561033257600080fd5b5061034d60048036038101906103489190611674565b61110d565b60405161035a9190611a56565b60405180910390f35b34801561036f57600080fd5b5061038a6004803603810190610385919061164b565b61113c565b005b6001818154811061039c57600080fd5b906000526020600020016000915054906101000a900473ffffffffffffffffffffffffffffffffffffffff1681565b6000600480549050905090565b60026020528060005260406000206000915054906101000a900460ff1681565b6000806000606060008060006004888154811061043e577f4e487b7100000000000000000000000000000000000000000000000000000000600052603260045260246000fd5b906000526020600020906006020190508060010160009054906101000a900473ffffffffffffffffffffffffffffffffffffffff168160000160009054906101000a900473ffffffffffffffffffffffffffffffffffffffff168260020154836005018460040160009054906101000a900460ff1685600301548280546104c490611dd5565b80601f01602080910402602001604051908101604052809291908181526020018280546104f090611dd5565b801561053d5780601f106105125761010080835404028352916020019161053d565b820191906000526020600020905b81548152906001019060200180831161052057829003601f168201915b505050505092509650965096509650965096505091939550919395565b600260003373ffffffffffffffffffffffffffffffffffffffff1673ffffffffffffffffffffffffffffffffffffffff16815260200190815260200160002060009054906101000a900460ff166105e6576040517f08c379a00000000000000000000000000000000000000000000000000000000081526004016105dd90611a71565b60405180910390fd5b80600480549050811061062e576040517f08c379a000000000000000000000000000000000000000000000000000000000815260040161062590611b31565b60405180910390fd5b81600015156004828154811061066d577f4e487b7100000000000000000000000000000000000000000000000000000000600052603260045260246000fd5b906000526020600020906006020160040160009054906101000a900460ff161515146106ce576040517f08c379a00000000000000000000000000000000000000000000000000000000081526004016106c590611a91565b60405180910390fd5b826003600082815260200190815260200160002060003373ffffffffffffffffffffffffffffffffffffffff1673ffffffffffffffffffffffffffffffffffffffff16815260200190815260200160002060009054906101000a900460ff1661076c576040517f08c379a000000000000000000000000000000000000000000000000000000000815260040161076390611ad1565b60405180910390fd5b6000600485815481106107a8577f4e487b7100000000000000000000000000000000000000000000000000000000600052603260045260246000fd5b9060005260206000209060060201905060006003600087815260200190815260200160002060003373ffffffffffffffffffffffffffffffffffffffff1673ffffffffffffffffffffffffffffffffffffffff16815260200190815260200160002060006101000a81548160ff02191690831515021790555060018160030160008282546108369190611d17565b92505081905550843373ffffffffffffffffffffffffffffffffffffffff167f27f83af92b39768b17fe0c8d6922452702717efb8626d97e7a754e0b27d4f6d260405160405180910390a35050505050565b6060600180548060200260200160405190810160405280929190818152602001828054801561090c57602002820191906000526020600020905b8160009054906101000a900473ffffffffffffffffffffffffffffffffffffffff1673ffffffffffffffffffffffffffffffffffffffff16815260200190600101908083116108c2575b5050505050905090565b6004818154811061092657600080fd5b90600052602060002090600602016000915090508060000160009054906101000a900473ffffffffffffffffffffffffffffffffffffffff16908060010160009054906101000a900473ffffffffffffffffffffffffffffffffffffffff16908060020154908060030154908060040160009054906101000a900460ff16908060050180546109b490611dd5565b80601f01602080910402602001604051908101604052809291908181526020018280546109e090611dd5565b8015610a2d5780601f10610a0257610100808354040283529160200191610a2d565b820191906000526020600020905b815481529060010190602001808311610a1057829003601f168201915b5050505050905086565b600260003373ffffffffffffffffffffffffffffffffffffffff1673ffffffffffffffffffffffffffffffffffffffff16815260200190815260200160002060009054906101000a900460ff16610ac3576040517f08c379a0000000000000000000000000000000000000000000000000000000008152600401610aba90611a71565b60405180910390fd5b806004805490508110610b0b576040517f08c379a0000000000000000000000000000000000000000000000000000000008152600401610b0290611b31565b60405180910390fd5b816000151560048281548110610b4a577f4e487b7100000000000000000000000000000000000000000000000000000000600052603260045260246000fd5b906000526020600020906006020160040160009054906101000a900460ff16151514610bab576040517f08c379a0000000000000000000000000000000000000000000000000000000008152600401610ba290611a91565b60405180910390fd5b82600015156003600083815260200190815260200160002060003373ffffffffffffffffffffffffffffffffffffffff1673ffffffffffffffffffffffffffffffffffffffff16815260200190815260200160002060009054906101000a900460ff16151514610c50576040517f08c379a0000000000000000000000000000000000000000000000000000000008152600401610c4790611ab1565b60405180910390fd5b833373ffffffffffffffffffffffffffffffffffffffff1660048281548110610ca2577f4e487b7100000000000000000000000000000000000000000000000000000000600052603260045260246000fd5b906000526020600020906006020160000160009054906101000a900473ffffffffffffffffffffffffffffffffffffffff1673ffffffffffffffffffffffffffffffffffffffff161415610d2b576040517f08c379a0000000000000000000000000000000000000000000000000000000008152600401610d2290611af1565b60405180910390fd5b600060048681548110610d67577f4e487b7100000000000000000000000000000000000000000000000000000000600052603260045260246000fd5b9060005260206000209060060201905060016003600088815260200190815260200160002060003373ffffffffffffffffffffffffffffffffffffffff1673ffffffffffffffffffffffffffffffffffffffff16815260200190815260200160002060006101000a81548160ff0219169083151502179055506001816003016000828254610df59190611cc1565b92505081905550853373ffffffffffffffffffffffffffffffffffffffff167fbde73c39e691e6143456e01935275fd9f654dacca25911f03ab0d587644377eb60405160405180910390a3505050505050565b600260003373ffffffffffffffffffffffffffffffffffffffff1673ffffffffffffffffffffffffffffffffffffffff16815260200190815260200160002060009054906101000a900460ff16610ed4576040517f08c379a0000000000000000000000000000000000000000000000000000000008152600401610ecb90611a71565b60405180910390fd5b6000600480549050905060046040518060c001604052803373ffffffffffffffffffffffffffffffffffffffff1681526020018673ffffffffffffffffffffffffffffffffffffffff1681526020018581526020016000815260200160001515815260200184815250908060018154018082558091505060019003906000526020600020906006020160009091909190915060008201518160000160006101000a81548173ffffffffffffffffffffffffffffffffffffffff021916908373ffffffffffffffffffffffffffffffffffffffff16021790555060208201518160010160006101000a81548173ffffffffffffffffffffffffffffffffffffffff021916908373ffffffffffffffffffffffffffffffffffffffff160217905550604082015181600201556060820151816003015560808201518160040160006101000a81548160ff02191690831515021790555060a0820151816005019080519060200190611044929190611486565b5050508373ffffffffffffffffffffffffffffffffffffffff16813373ffffffffffffffffffffffffffffffffffffffff167fae88b418f2b5e7c7e4a839d4244a762f0552c731cb27e637651304317491b10786866040516110a7929190611b8c565b60405180910390a450505050565b60005481565b3373ffffffffffffffffffffffffffffffffffffffff167f90890809c654f11d6e72a28fa60149770a0d11ec6c92319d6ceb2bb0a4ea1a153447604051611103929190611bbc565b60405180910390a2565b60036020528160005260406000206020528060005260406000206000915091509054906101000a900460ff1681565b600260003373ffffffffffffffffffffffffffffffffffffffff1673ffffffffffffffffffffffffffffffffffffffff16815260200190815260200160002060009054906101000a900460ff166111c8576040517f08c379a00000000000000000000000000000000000000000000000000000000081526004016111bf90611a71565b60405180910390fd5b806004805490508110611210576040517f08c379a000000000000000000000000000000000000000000000000000000000815260040161120790611b31565b60405180910390fd5b81600015156004828154811061124f577f4e487b7100000000000000000000000000000000000000000000000000000000600052603260045260246000fd5b906000526020600020906006020160040160009054906101000a900460ff161515146112b0576040517f08c379a00000000000000000000000000000000000000000000000000000000081526004016112a790611a91565b60405180910390fd5b6000600484815481106112ec577f4e487b7100000000000000000000000000000000000000000000000000000000600052603260045260246000fd5b9060005260206000209060060201905060005481600301541015611345576040517f08c379a000000000000000000000000000000000000000000000000000000000815260040161133c90611b11565b60405180910390fd5b60018160040160006101000a81548160ff02191690831515021790555060008160010160009054906101000a900473ffffffffffffffffffffffffffffffffffffffff1673ffffffffffffffffffffffffffffffffffffffff168260020154836005016040516113b59190611932565b60006040518083038185875af1925050503d80600081146113f2576040519150601f19603f3d011682016040523d82523d6000602084013e6113f7565b606091505b505090508061143b576040517f08c379a000000000000000000000000000000000000000000000000000000000815260040161143290611b51565b60405180910390fd5b843373ffffffffffffffffffffffffffffffffffffffff167f892cd8f5b436bd5fb7dac1f11aafb73345d892ba3e9fe09cd94d95ba84928e7360405160405180910390a35050505050565b82805461149290611dd5565b90600052602060002090601f0160209004810192826114b457600085556114fb565b82601f106114cd57805160ff19168380011785556114fb565b828001600101855582156114fb579182015b828111156114fa5782518255916020019190600101906114df565b5b509050611508919061150c565b5090565b5b8082111561152557600081600090555060010161150d565b5090565b600061153c61153784611c0a565b611be5565b90508281526020810184848401111561155457600080fd5b61155f848285611d93565b509392505050565b600081359050611576816120dc565b92915050565b600082601f83011261158d57600080fd5b813561159d848260208601611529565b91505092915050565b6000813590506115b5816120f3565b92915050565b6000602082840312156115cd57600080fd5b60006115db84828501611567565b91505092915050565b6000806000606084860312156115f957600080fd5b600061160786828701611567565b9350506020611618868287016115a6565b925050604084013567ffffffffffffffff81111561163557600080fd5b6116418682870161157c565b9150509250925092565b60006020828403121561165d57600080fd5b600061166b848285016115a6565b91505092915050565b6000806040838503121561168757600080fd5b6000611695858286016115a6565b92505060206116a685828601611567565b9150509250929050565b60006116bc83836116c8565b60208301905092915050565b6116d181611d4b565b82525050565b6116e081611d4b565b82525050565b60006116f182611c60565b6116fb8185611c83565b935061170683611c3b565b8060005b8381101561173757815161171e88826116b0565b975061172983611c76565b92505060018101905061170a565b5085935050505092915050565b61174d81611d5d565b82525050565b600061175e82611c6b565b6117688185611c94565b9350611778818560208601611da2565b61178181611ec5565b840191505092915050565b6000815461179981611dd5565b6117a38186611ca5565b945060018216600081146117be57600181146117cf57611802565b60ff19831686528186019350611802565b6117d885611c4b565b60005b838110156117fa578154818901526001820191506020810190506117db565b838801955050505b50505092915050565b6000611818601b83611cb0565b915061182382611ed6565b602082019050919050565b600061183b602983611cb0565b915061184682611eff565b604082019050919050565b600061185e602a83611cb0565b915061186982611f4e565b604082019050919050565b6000611881602783611cb0565b915061188c82611f9d565b604082019050919050565b60006118a4604183611cb0565b91506118af82611fec565b606082019050919050565b60006118c7601e83611cb0565b91506118d282612061565b602082019050919050565b60006118ea601d83611cb0565b91506118f58261208a565b602082019050919050565b600061190d601683611cb0565b9150611918826120b3565b602082019050919050565b61192c81611d89565b82525050565b600061193e828461178c565b915081905092915050565b600060208201905061195e60008301846116d7565b92915050565b600060c08201905061197960008301896116d7565b61198660208301886116d7565b6119936040830187611923565b81810360608301526119a58186611753565b90506119b46080830185611744565b6119c160a0830184611923565b979650505050505050565b600060c0820190506119e160008301896116d7565b6119ee60208301886116d7565b6119fb6040830187611923565b611a086060830186611923565b611a156080830185611744565b81810360a0830152611a278184611753565b9050979650505050505050565b60006020820190508181036000830152611a4e81846116e6565b905092915050565b6000602082019050611a6b6000830184611744565b92915050565b60006020820190508181036000830152611a8a8161180b565b9050919050565b60006020820190508181036000830152611aaa8161182e565b9050919050565b60006020820190508181036000830152611aca81611851565b9050919050565b60006020820190508181036000830152611aea81611874565b9050919050565b60006020820190508181036000830152611b0a81611897565b9050919050565b60006020820190508181036000830152611b2a816118ba565b9050919050565b60006020820190508181036000830152611b4a816118dd565b9050919050565b60006020820190508181036000830152611b6a81611900565b9050919050565b6000602082019050611b866000830184611923565b92915050565b6000604082019050611ba16000830185611923565b8181036020830152611bb38184611753565b90509392505050565b6000604082019050611bd16000830185611923565b611bde6020830184611923565b9392505050565b6000611bef611c00565b9050611bfb8282611e07565b919050565b6000604051905090565b600067ffffffffffffffff821115611c2557611c24611e96565b5b611c2e82611ec5565b9050602081019050919050565b6000819050602082019050919050565b60008190508160005260206000209050919050565b600081519050919050565b600081519050919050565b6000602082019050919050565b600082825260208201905092915050565b600082825260208201905092915050565b600081905092915050565b600082825260208201905092915050565b6000611ccc82611d89565b9150611cd783611d89565b9250827fffffffffffffffffffffffffffffffffffffffffffffffffffffffffffffffff03821115611d0c57611d0b611e38565b5b828201905092915050565b6000611d2282611d89565b9150611d2d83611d89565b925082821015611d4057611d3f611e38565b5b828203905092915050565b6000611d5682611d69565b9050919050565b60008115159050919050565b600073ffffffffffffffffffffffffffffffffffffffff82169050919050565b6000819050919050565b82818337600083830152505050565b60005b83811015611dc0578082015181840152602081019050611da5565b83811115611dcf576000848401525b50505050565b60006002820490506001821680611ded57607f821691505b60208210811415611e0157611e00611e67565b5b50919050565b611e1082611ec5565b810181811067ffffffffffffffff82111715611e2f57611e2e611e96565b5b80604052505050565b7f4e487b7100000000000000000000000000000000000000000000000000000000600052601160045260246000fd5b7f4e487b7100000000000000000000000000000000000000000000000000000000600052602260045260246000fd5b7f4e487b7100000000000000000000000000000000000000000000000000000000600052604160045260246000fd5b6000601f19601f8301169050919050565b7f5468652061646472657373206973206e6f7420616e206f776e65720000000000600082015250565b7f546865207472616e73616374696f6e2068617320616c7265616479206265656e60008201527f2065786563757465640000000000000000000000000000000000000000000000602082015250565b7f546865207472616e73616374696f6e2068617320616c7265616479206265656e60008201527f20636f6e6669726d656400000000000000000000000000000000000000000000602082015250565b7f596f752068617665206e6f7420636f6e6669726d65642074686174207472616e60008201527f73616374696f6e00000000000000000000000000000000000000000000000000602082015250565b7f54686973207472616e73616374696f6e2062656c676f6e7320746f20796f752e60008201527f20596f752063616e206e6f7420706572666f726d20612076616c69646174696f60208201527f6e00000000000000000000000000000000000000000000000000000000000000604082015250565b7f43616e6e6f74206578656375746520746865207472616e73616374696f6e0000600082015250565b7f546865207472616e73616374696f6e20646f6573206e6f742065786974000000600082015250565b7f5472616e73616374696f6e20686173206661696c656400000000000000000000600082015250565b6120e581611d4b565b81146120f057600080fd5b50565b6120fc81611d89565b811461210757600080fd5b5056fea2646970667358221220f46ed54d080a72d34cdb4e202ed73c2b0eccccc612db83a387f1f99a38f8831964736f6c63430008020033",
  "immutableReferences": {},
  "source": "// SPDX-License-Identifier: MIT\r\npragma solidity >=0.7.0 <0.9.0;\r\n\r\ncontract MultiSignature\r\n{\r\n    uint public numConformationsRequired;                                           // Number of confirmations required to execute a transaction\r\n    address[] public owners;                                                        // Owners of the wallet\r\n\r\n    struct Transaction\r\n    {\r\n        address from;                   // The sender address. The sender can not confirm his own transaction\r\n        address to;                     // recipient's address\r\n        uint value;                     // number of ether (wei) sent\r\n        uint numConfirmations;          // number of pending confirmation of the transaction\r\n        bool executed;                  // state of the execution of the transaction\r\n        bytes data;                     // data stored inside the transaction\r\n    }\r\n\r\n    mapping(address => bool) public isOwner;\r\n    mapping(uint => mapping(address => bool)) public isTransactionConfirmed;\r\n\r\n    Transaction[] public transactions;\r\n\r\n    event Deposit(address indexed sender, uint amount, uint balance);\r\n    event Submit(\r\n        address indexed owner, \r\n        uint indexed trxIndex, \r\n        address indexed to, \r\n        uint value, \r\n        bytes data);\r\n    event Confirm(address indexed owner, uint indexed trxIndex);\r\n    event Cancel(address indexed owner, uint indexed trxIndex);\r\n    event Execute(address indexed owner, uint indexed trxIndex);\r\n\r\n    modifier onlyOwner()\r\n    {\r\n        require(isOwner[msg.sender], \"The address is not an owner\");\r\n        _;\r\n    }\r\n\r\n    modifier trxExist(uint _index)\r\n    {\r\n        require(_index < transactions.length, \"The transaction does not exit\");\r\n        _;\r\n    }\r\n\r\n    modifier pendingState(uint _index)\r\n    {\r\n        require(transactions[_index].executed == false, \"The transaction has already been executed\");\r\n        _;\r\n    }\r\n\r\n    modifier notConfirmedByOwner(uint _index)\r\n    {\r\n        require(isTransactionConfirmed[_index][msg.sender] == false, \"The transaction has already been confirmed\");\r\n        _;\r\n    }\r\n\r\n    modifier notInitiator(uint _index)\r\n    {\r\n        require(transactions[_index].from != msg.sender, \"This transaction belgons to you. You can not perform a validation\");\r\n        _;\r\n    }\r\n\r\n    modifier alreadyConfirmed(uint _index)\r\n    {\r\n        require(isTransactionConfirmed[_index][msg.sender], \"You have not confirmed that transaction\");\r\n        _;\r\n    }\r\n\r\n    constructor(address[] memory _owners, uint _numConfirmationsRequired)\r\n    {\r\n        require(_owners.length > 0, \"Owners required\");\r\n        require(\r\n            _numConfirmationsRequired > 0 && \r\n            _numConfirmationsRequired <= _owners.length, \r\n            \"Invalid number of required confirmations\"\r\n            );\r\n        \r\n        for(uint i = 0; i < _owners.length; i++)\r\n        {\r\n            address owner = _owners[i];\r\n\r\n            require(owner != address(0), \"Invalid owner\");\r\n            require(!isOwner[owner], \"Owner is not unique\");\r\n            isOwner[owner] = true;\r\n            owners.push(owner);\r\n        } \r\n        numConformationsRequired = _numConfirmationsRequired;\r\n    }\r\n\r\n    receive() payable external\r\n    {\r\n        emit Deposit(msg.sender, msg.value, address(this).balance);\r\n    }\r\n\r\n    function deposit() payable external\r\n    {\r\n        emit Deposit(msg.sender, msg.value, address(this).balance);\r\n    }\r\n\r\n    function submitTransaction(address _to, uint _value, bytes memory _data) public onlyOwner\r\n    {\r\n        uint txIndex = transactions.length;\r\n        transactions.push(Transaction({\r\n            to: _to,\r\n            from: msg.sender,\r\n            value: _value,\r\n            data: _data,\r\n            executed: false,\r\n            numConfirmations : 0\r\n        }));\r\n        emit Submit(msg.sender, txIndex, _to, _value, _data);\r\n    }\r\n\r\n    function confirmTransaction(uint _txIndex) public onlyOwner trxExist(_txIndex) pendingState(_txIndex) notConfirmedByOwner(_txIndex) notInitiator(_txIndex)\r\n    {\r\n        Transaction storage transaction = transactions[_txIndex];\r\n        isTransactionConfirmed[_txIndex][msg.sender] = true;\r\n        transaction.numConfirmations += 1;\r\n\r\n        emit Confirm(msg.sender, _txIndex);\r\n    }\r\n\r\n    function executeTransaction(uint _txIndex) public onlyOwner trxExist(_txIndex) pendingState(_txIndex)\r\n    {\r\n         Transaction storage transaction = transactions[_txIndex];\r\n         require(transaction.numConfirmations >= numConformationsRequired,\r\n         \"Cannot execute the transaction\");\r\n\r\n         transaction.executed = true;\r\n         (bool success, ) = transaction.to.call{value: transaction.value}(transaction.data);\r\n         require(success, \"Transaction has failed\");\r\n\r\n         emit Execute(msg.sender, _txIndex);\r\n    }\r\n\r\n    function cancelConfirmation(uint _txIndex) public onlyOwner trxExist(_txIndex) pendingState(_txIndex) alreadyConfirmed(_txIndex)\r\n    {\r\n        Transaction storage transaction = transactions[_txIndex];\r\n        isTransactionConfirmed[_txIndex][msg.sender] = false;\r\n        transaction.numConfirmations -= 1;\r\n\r\n        emit Cancel(msg.sender, _txIndex);\r\n    }\r\n\r\n    function getOwner() public view returns (address[] memory)\r\n    {\r\n        return owners;\r\n    }\r\n\r\n    function getTransactionCount() public view returns (uint)\r\n    {\r\n        return transactions.length;\r\n    }\r\n\r\n    function getTransaction(uint _index) public view returns(address to, address from, uint value, bytes memory data, bool executed, uint numConfirmations)\r\n    {\r\n        Transaction storage transaction = transactions[_index];\r\n\r\n        return (\r\n            transaction.to,\r\n            transaction.from,\r\n            transaction.value,\r\n            transaction.data,\r\n            transaction.executed,\r\n            transaction.numConfirmations\r\n        );\r\n    }\r\n}",
  "sourcePath": "D:/Documents/Development/Ether/multi-signature-wallet/smart-contract/contracts/MultiSignature.sol",
  "compiler": {
    "name": "solc",
    "version": "0.8.2+commit.661d1103.Emscripten.clang"
  },
  "schemaVersion": "3.3.4",
  "updatedAt": "2021-04-12T23:19:19.996Z",
  "networkType": "ethereum",
  "devdoc": {
    "kind": "dev",
    "methods": {},
    "version": 1
  },
  "userdoc": {
    "kind": "user",
    "methods": {},
    "version": 1
  }
}